:100000005FEF02F01738700B006ED89000361F0EAD
:100010006F1400106F6E6ECF00F0003A0030070BC7
:10002000175CF9E11200C00E0E0143150109436F80
:100030003F0E4315436FF80E44150709446FC70E72
:100040004415446F449D448FF80E45150509456FCE
:10005000458D0001C4EF00F02B5252E025C0E9FFAE
:1000600026C0EAFF27C0EFFF2550D8B42606250694
:1000700025C0E9FF26C0EAFF28C0EFFF2550D8B40D
:100080002606250625C0E9FF26C0EAFF2950030BF6
:10009000EF6E25C0E9FF26C0EAFF29C000F0003658
:1000A00000360036F80E00160050E00BEF10EF6E31
:1000B00025C0E9FF26C0EAFFEF500809EF6E255082
:1000C000D8B42606250625C0E9FF26C0EAFF29C0C8
:1000D00000F0003A0032070E00160050070BEF6EDA
:1000E00025C0E9FF26C0EAFF2AC000F0003600362E
:1000F0000036F80E00160050F80BEF10EF6E3FD0F0
:1001000025C0E9FF26C0EAFFEF6A2550D8B42606CD
:10011000250625C0E9FF26C0EAFFEF6A2550D8B4BE
:100120002606250625C0E9FF26C0EAFF27C000F005
:10013000003A0036E00E00160050E00BEF6E25503E
:10014000D8B42606250625C0E9FF26C0EAFF27C049
:1001500000F00032003200321F0E001600501F0B5C
:10016000EF6E25C0E9FF26C0EAFF28C000F0003A84
:100170000036E00E00160050E00BEF10EF6E12009C
:10018000040E176E3FDF4FD7056A606A9F0E60143A
:10019000606E608460CF30FF709A7098709E709C23
:1001A0000E0E266EFB0E256E2A6A296A286A276AB9
:1001B0002B6A52DF0E0E266EE30E256E2A6A296A1E
:1001C000286A276A2B6A48DF0E0E266EE70E256E18
:1001D0002A6A296A286A276A2B6A3EDF0E0E266E73
:1001E00025682A6A296A286A276A2B6A35DF0E0E73
:1001F000266EEB0E256E2A6A296A286A276A2B6A00
:100200002BDF0E0E266EEF0E256E2A6A296A286AEB
:10021000276A2B6A21DF0E0E266EF30E256E2A6AE0
:10022000296A286A276A2B6A17DF0E0E266EF70ED8
:10023000256E2A6A296A286A276A2B6A0DDF0E0E44
:10024000266E4B0E256E2A6A296A286A276A2B6A4F
:1002500003DF0E0E266E4F0E256E2A6A296A286A63
:10026000276A2B6AF9DE0E0E266E530E256E2A6A59
:10027000296A286A276A2B6AEFDE0E0E266E570E51
:10028000256E2A6A296A286A276A2B6AE5DE0E0E1D
:10029000266E5B0E256E2A6A296A286A276A2B6AEF
:1002A000DBDE0E0E266E5F0E256E2A6A296A286A2C
:1002B000276A2B6AD1DE0E0E266E630E256E2A6A21
:1002C000296A286A276A2B6AC7DE0E0E266E670E19
:1002D000256E2A6A296A286A276A2B6ABDDE0E0EF5
:1002E000266E6B0E256E2A6A296A286A276A2B6A8F
:1002F000B3DE0E0E266E6F0E256E2A6A296A286AF4
:10030000276A2B6AA9DE9350FB0B0809936E176AC4
:1003100079DE7BEF02F00F0E236E660E226E0F0168
:1003200020B70DD0055205E1F10E6F1408096F6E6C
:1003300004D0E00E72140309726E246A67D010B7FD
:100340000ED0055205E1F10E6F1406096F6E04D050
:10035000E00E72140409726E010E246E57D000B7BD
:100360000ED0055205E1F10E6F1404096F6E04D032
:10037000E00E72140509726E020E246E47D00E0153
:1003800080B709D07DA507D0E00E72141209726EF5
:10039000030E246E3AD090B709D07DA707D0E00EA7
:1003A00072141309726E040E246E2FD0A0B709D0F8
:1003B0007DA907D0E00E72141409726E050E246E2A
:1003C00024D0B0B709D07DAB07D0E00E7214150968
:1003D000726E060E246E19D0C0B709D07DAD07D05D
:1003E000E00E72141609726E070E246E0ED0D0B78E
:1003F00009D07DAF07D0E00E72141709726E080E97
:10040000246E03D0000E016E43D00F011E50030B6B
:10041000006EFC0E60140010606E0F0E266E640EEF
:10042000256E1AC02AF019C029F018C028F017C08C
:1004300027F01FC02BF000010FDE1DC065FF659C7B
:1004400020B0658C216A1D50215C14E21BC0E9FFBD
:100450001CC0EAFFEFCF27F023C0EAFF22C0E9FF6C
:1004600027C0EFFF222AD8B4232A1B2AD8B41C2A7B
:10047000212AE9D76086055204E1F10E6F146F6EF0
:1004800004D0E00E72141009726E010E016E0E019E
:1004900000018EEF02F0EA6A180EE96EEF500EE0EE
:1004A000140E016E006A002EFED7012EFBD7BF0E80
:1004B000006E002EFED700D0EF2EF2D71200F86AA1
:1004C000D09E700ED36E400E9B6E646A0F015C511D
:1004D000800B5C6F000E5D6FC196C198C19A5E6B18
:1004E0005F6B580E0B6EC80E0C6E240E136E140E3E
:1004F000146E000145D692928982929489941A6A68
:10050000196A010E186E176A1C6A130E1B6E020E12
:100510001D6E010E1E6E1F6A206AFDD6020E176E3A
:10052000FA0E186EB8DF172EFBD792948984929238
:100530008992020E176EFA0E186EADDF172EFBD7DA
:04054000DAD7030003
:020000040030CA
:0E00000015C8781C008991000FC00FE00F405A
:00000001FF
;PIC18F25K80
;CRC=4FF5  CREATED="24-feb.-16 23:04"
