:100000005FEF02F00C38700B006ED89000361F0EB8
:100010006F1400106F6E6ECF00F0003A0030070BC7
:100020000C5CF9E11200C00E0E0143150109436F8B
:100030003F0E4315436FF80E44150709446FC70E72
:100040004415446F449D448FF80E45150509456FCE
:10005000458D0001C4EF00F0205252E01AC0E9FFC4
:100060001BC0EAFF1CC0EFFF1A50D8B41B061A06CB
:100070001AC0E9FF1BC0EAFF1DC0EFFF1A50D8B439
:100080001B061A061AC0E9FF1BC0EAFF1E50030B2D
:10009000EF6E1AC0E9FF1BC0EAFF1EC000F0003679
:1000A00000360036F80E00160050E00BEF10EF6E31
:1000B0001AC0E9FF1BC0EAFFEF500809EF6E1A50A3
:1000C000D8B41B061A061AC0E9FF1BC0EAFF1EC0FF
:1000D00000F0003A0032070E00160050070BEF6EDA
:1000E0001AC0E9FF1BC0EAFF1FC000F0003600364F
:1000F0000036F80E00160050F80BEF10EF6E3FD0F0
:100100001AC0E9FF1BC0EAFFEF6A1A50D8B41B06F9
:100110001A061AC0E9FF1BC0EAFFEF6A1A50D8B4EA
:100120001B061A061AC0E9FF1BC0EAFF1CC000F03C
:10013000003A0036E00E00160050E00BEF6E1A5049
:10014000D8B41B061A061AC0E9FF1BC0EAFF1CC080
:1001500000F00032003200321F0E001600501F0B5C
:10016000EF6E1AC0E9FF1BC0EAFF1DC000F0003AA5
:100170000036E00E00160050E00BEF10EF6E12009C
:10018000040E0C6E3FDF4FD7056A606A9F0E601445
:10019000606E608460CF30FF709A7098709E709C23
:1001A0000E0E1B6EFB0E1A6E1F6A1E6A1D6A1C6AFB
:1001B000206A52DF0E0E1B6EE30E1A6E1F6A1E6A55
:1001C0001D6A1C6A206A48DF0E0E1B6EE70E1A6E4F
:1001D0001F6A1E6A1D6A1C6A206A3EDF0E0E1B6EB5
:1001E0001A681F6A1E6A1D6A1C6A206A35DF0E0EB5
:1001F0001B6EEB0E1A6E1F6A1E6A1D6A1C6A206A4D
:100200002BDF0E0E1B6EEF0E1A6E1F6A1E6A1D6A22
:100210001C6A206A21DF0E0E1B6EF30E1A6E1F6A17
:100220001E6A1D6A1C6A206A17DF0E0E1B6EF70E0F
:100230001A6E1F6A1E6A1D6A1C6A206A0DDF0E0E86
:100240001B6E4B0E1A6E1F6A1E6A1D6A1C6A206A9C
:1002500003DF0E0E1B6E4F0E1A6E1F6A1E6A1D6A9A
:100260001C6A206AF9DE0E0E1B6E530E1A6E1F6A90
:100270001E6A1D6A1C6A206AEFDE0E0E1B6E570E88
:100280001A6E1F6A1E6A1D6A1C6A206AE5DE0E0E5F
:100290001B6E5B0E1A6E1F6A1E6A1D6A1C6A206A3C
:1002A000DBDE0E0E1B6E5F0E1A6E1F6A1E6A1D6A63
:1002B0001C6A206AD1DE0E0E1B6E630E1A6E1F6A58
:1002C0001E6A1D6A1C6A206AC7DE0E0E1B6E670E50
:1002D0001A6E1F6A1E6A1D6A1C6A206ABDDE0E0E37
:1002E0001B6E6B0E1A6E1F6A1E6A1D6A1C6A206ADC
:1002F000B3DE0E0E1B6E6F0E1A6E1F6A1E6A1D6A2B
:100300001C6A206AA9DE9350FB0B0809936E0C6AE5
:1003100079DE77EF02F00F0E186E660E176E0F0182
:1003200020B70DD0055205E1F10E6F1408096F6E6C
:1003300004D0E00E72140309726E196A67D010B708
:100340000ED0055205E1F10E6F1406096F6E04D050
:10035000E00E72140409726E010E196E57D000B7C8
:100360000ED0055205E1F10E6F1404096F6E04D032
:10037000E00E72140509726E020E196E47D00E015E
:1003800080B709D07DA507D0E00E72141209726EF5
:10039000030E196E3AD090B709D07DA707D0E00EB2
:1003A00072141309726E040E196E2FD0A0B709D003
:1003B0007DA907D0E00E72141409726E050E196E35
:1003C00024D0B0B709D07DAB07D0E00E7214150968
:1003D000726E060E196E19D0C0B709D07DAD07D068
:1003E000E00E72141609726E070E196E0ED0D0B799
:1003F00009D07DAF07D0E00E72141709726E080E97
:10040000196E03D0000E016E43D00F011350030B81
:10041000006EFC0E60140010606E0F0E1B6E640EFA
:100420001A6E0FC01FF00EC01EF00DC01DF00CC0E4
:100430001CF014C020F000010FDE12C065FF659CA7
:1004400015B0658C166A1250165C14E210C0E9FFF4
:1004500011C0EAFFEFCF1CF018C0EAFF17C0E9FF98
:100460001CC0EFFF172AD8B4182A102AD8B4112AB2
:10047000162AE9D76086055204E1F10E6F146F6EFB
:1004800004D0E00E72141009726E010E016E0E019E
:1004900000018AEF02F0EA6A0D0EE96EEF500EE0FD
:1004A000140E016E006A002EFED7012EFBD7BF0E80
:1004B000006E002EFED700D0EF2EF2D71200F86AA1
:1004C000D09E700ED36E400E9B6E646A0F015C511D
:1004D000800B5C6F000E5D6FC196C198C19A5E6B18
:1004E0005F6B240E0A6E140E0B6E000149D69292B9
:1004F0008982929489940F6A0E6A010E0D6E0C6ABD
:10050000116A0A0E106E020E126E010E136E146A3C
:10051000156A01D7020E0C6EFA0E0D6EBCDF0C2EA2
:10052000FBD79294898492928992020E0C6EFA0EF5
:0C0530000D6EB1DF0C2EFBD7DAD70300F4
:020000040030CA
:0E00000015C8781C008991000FC00FE00F405A
:00000001FF
;PIC18F25K80
;CRC=E123  CREATED="27-feb.-16 15:41"
